:020000040800F2
:100000000000012081220008511E0008591E00082E
:10001000611E0008691E0008711E00080000000033
:10002000000000000000000000000000791E000831
:10003000871E000800000000951E0008A31E00088F
:10004000D1220008D1220008D1220008D1220008C4
:10005000D1220008D1220008D1220008D1220008B4
:10006000D1220008D1220008D1220008D1220008A4
:10007000D1220008D1220008D1220008D122000894
:10008000D1220008D1220008D1220008000000007F
:10009000000000000000000000000000D122000865
:1000A000D1220008B11E0008D1220008D122000888
:1000B000D1220008D1220008D1220008D122000854
:1000C000D1220008D1220008D1220008D122000844
:1000D000D1220008C51E0008D1220008000000003F
:1000E000D1220008D1220008D1220008000000001F
:1000F000000000000000000000000000D122000805
:1001000000000000D1220008D1220008D1220008FE
:1001100000000000000000000000000000000000DF
:10012000D1220008D1220008D1220008D1220008E3
:10013000D1220008000000000000000000000000C4
:10014000000000000000000000000000D91E0008B0
:10015000D1220008D1220008D1220008D1220008B3
:10016000D1220008D1220008000000000000000099
:10017000000000000000000000000000000000007F
:1001800000000000D1220008000000000000000074
:04019000D122000870
:1001A00010B5054C237833B9044B13B10448AFF3B1
:1001B00000800123237010BDD00200200000000049
:1001C0003CF6000808B5034B1BB103490348AFF3E5
:1001D000008008BD00000000D40200203CF60008AA
:1001E00010F8012B11F8013B012A28BF9A42F7D0E1
:1001F000D01A70470000000000000000000000005E
:1002000001F0FF01102A2BDB10F0070F08D010F8C7
:10021000013B013A8B422DD010F0070F42B3F6D1CB
:10022000F0B441EA012141EA014122F007047FF0E4
:1002300000070023F0E80256083C85EA010586EA3B
:10024000010685FA47F5A3FA87F586FA47F6A5FA77
:1002500087F68EB9EED1F0BC01F0FF0102F0070283
:1002600032B110F8013B013A83EA010313B1F8D12E
:100270000020704701387047002D06BF354603380F
:10028000073815F0010F07D1013015F4807F02BF48
:10029000013015F4C03F0130F0BC0138704700BF99
:1002A000034613F8012B002AFBD1181A01387047B6
:1002B00081F0004102E000BF83F0004330B54FEA17
:1002C00041044FEA430594EA050F08BF90EA020F84
:1002D0001FBF54EA000C55EA020C7FEA645C7FEA17
:1002E000655C00F0E2804FEA5454D4EB5555B8BF3A
:1002F0006D420CDD2C4480EA020281EA030382EAAB
:10030000000083EA010180EA020281EA0303362D3C
:1003100088BF30BD11F0004F4FEA01314FF4801C0F
:100320004CEA113102D0404261EB410113F0004F21
:100330004FEA03334CEA133302D0524263EB4303D8
:1003400094EA050F00F0A780A4F10104D5F1200E76
:100350000DDB02FA0EFC22FA05F2801841F10001D1
:1003600003FA0EF2801843FA05F359410EE0A5F1A5
:1003700020050EF1200E012A03FA0EFC28BF4CF0D6
:10038000020C43FA05F3C01851EBE37101F000458C
:1003900007D54FF0000EDCF1000C7EEB00006EEB99
:1003A0000101B1F5801F1BD3B1F5001F0CD3490823
:1003B0005FEA30004FEA3C0C04F101044FEA44527A
:1003C00012F5800F80F09A80BCF1004F08BF5FEA01
:1003D000500C50F1000041EB045141EA050130BDE1
:1003E0005FEA4C0C404141EB0101013C28BFB1F5F3
:1003F000801FE9D291F0000F04BF01460020B1FA3E
:1004000081F308BF2033A3F10B03B3F120020CDA10
:100410000C3208DD02F1140CC2F10C0201FA0CF0EE
:1004200021FA02F10CE002F11402D8BFC2F1200C53
:1004300001FA02F120FA0CFCDCBF41EA0C01904009
:10044000E41AA2BF01EB0451294330BD6FEA040452
:100450001F3C1CDA0C340EDC04F11404C4F120023D
:1004600020FA04F001FA02F340EA030021FA04F34F
:1004700045EA030130BDC4F10C04C4F1200220FAA6
:1004800002F001FA04F340EA0300294630BD21FAE4
:1004900004F0294630BD94F0000F83F4801306BFAA
:1004A00081F480110134013D4EE77FEA645C18BF9E
:1004B0007FEA655C29D094EA050F08BF90EA020F35
:1004C00005D054EA000C04BF1946104630BD91EA2D
:1004D000030F1EBF0021002030BD5FEA545C05D130
:1004E0004000494128BF41F0004130BD14F580046F
:1004F0003CBF01F5801130BD01F0004545F0FE41E3
:1005000041F470014FF0000030BD7FEA645C1ABF17
:10051000194610467FEA655C1CBF0B46024650EA4E
:10052000013406BF52EA033591EA030F41F400217A
:1005300030BD00BF90F0000F04BF0021704730B500
:100540004FF4806404F132044FF000054FF00001D5
:1005500050E700BF90F0000F04BF0021704730B596
:100560004FF4806404F1320410F0004548BF40426B
:100570004FF000013EE700BF42004FEAE2014FEAC0
:1005800031014FEA02701FBF12F07F4393F07F4F9B
:1005900081F06051704732F07F4208BF704793F09E
:1005A0007F4F04BF41F40021704730B54FF46074B1
:1005B00001F0004521F000411CE700BF50EA0102B4
:1005C00008BF704730B54FF000050AE050EA01025D
:1005D00008BF704730B511F0004502D5404261EBCD
:1005E00041014FF4806404F132045FEA915C3FF40E
:1005F000D8AE4FF003025FEADC0C18BF03325FEAAB
:10060000DC0C18BF033202EBDC02C2F1200300FA5B
:1006100003FC20FA02F001FA03FE40EA0E0021FA80
:1006200002F11444BDE600BF70B54FF0FF0C4CF46E
:10063000E06C1CEA11541DBF1CEA135594EA0C0F20
:1006400095EA0C0F00F0DEF82C4481EA030621EA5B
:100650004C5123EA4C5350EA013518BF52EA033596
:1006600041F4801143F4801338D0A0FB02CE4FF048
:100670000005E1FB02E506F00042E0FB03E54FF078
:100680000006E1FB03569CF0000F18BF4EF0010E70
:10069000A4F1FF04B6F5007F64F5407404D25FEA6C
:1006A0004E0E6D4146EB060642EAC62141EA55511F
:1006B0004FEAC52040EA5E504FEACE2EB4F1FD0C61
:1006C00088BFBCF5E06F1ED8BEF1004F08BF5FEADF
:1006D000500E50F1000041EB045170BD06F0004691
:1006E00046EA010140EA020081EA0301B4EB5C043E
:1006F000C2BFD4EB0C0541EA045170BD41F4801136
:100700004FF0000E013C00F3AB8014F1360FDEBF5A
:10071000002001F0004170BDC4F10004203C35DA36
:100720000C341BDC04F11404C4F1200500FA05F3B9
:1007300020FA04F001FA05F240EA020001F000425A
:1007400021F0004110EBD37021FA04F642EB0601D0
:100750005EEA430E08BF20EAD37070BDC4F10C04FA
:10076000C4F1200500FA04F320FA05F001FA04F2BE
:1007700040EA020001F0004110EBD37041F10001AA
:100780005EEA430E08BF20EAD37070BDC4F12005B5
:1007900000FA05F24EEA020E20FA04F301FA05F21D
:1007A00043EA020321FA04F001F0004121FA04F2C5
:1007B00020EA020000EBD3705EEA430E08BF20EA95
:1007C000D37070BD94F0000F0FD101F000464000CF
:1007D00041EB010111F4801F08BF013CF7D041EA51
:1007E000060195F0000F18BF704703F00046520055
:1007F00043EB030313F4801F08BF013DF7D043EA26
:100800000603704794EA0C0F0CEA135518BF95EADB
:100810000C0F0CD050EA410618BF52EA4306D1D162
:1008200081EA030101F000414FF0000070BD50EA81
:10083000410606BF1046194652EA430619D094EA0B
:100840000C0F02D150EA013613D195EA0C0F05D1F5
:1008500052EA03361CBF104619460AD181EA030149
:1008600001F0004141F0FE4141F470014FF0000001
:1008700070BD41F0FE4141F4780170BD70B54FF09C
:10088000FF0C4CF4E06C1CEA11541DBF1CEA13551C
:1008900094EA0C0F95EA0C0F00F0A7F8A4EB0504FE
:1008A00081EA030E52EA03354FEA013100F08880F5
:1008B0004FEA03334FF0805545EA131343EA1263BE
:1008C0004FEA022245EA111545EA10654FEA002673
:1008D0000EF000419D4208BF964244F1FD0404F52C
:1008E000407402D25B084FEA3202B61A65EB030588
:1008F0005B084FEA32024FF480104FF4002CB6EB45
:10090000020E75EB030E22BFB61A754640EA0C00C4
:100910005B084FEA3202B6EB020E75EB030E22BF04
:10092000B61A754640EA5C005B084FEA3202B6EB45
:10093000020E75EB030E22BFB61A754640EA9C0004
:100940005B084FEA3202B6EB020E75EB030E22BFD4
:10095000B61A754640EADC0055EA060E18D04FEA92
:10096000051545EA16754FEA06164FEAC30343EA32
:1009700052734FEAC2025FEA1C1CC0D111F4801FFF
:100980000BD141EA00014FF000004FF0004CB6E7F8
:1009900011F4801F04BF01430020B4F1FD0C88BF97
:1009A000BCF5E06F3FF6AFAEB5EB030C04BFB6EBA2
:1009B000020C5FEA500C50F1000041EB045170BD95
:1009C0000EF0004E4EEA113114EB5C04C2BFD4EBC2
:1009D0000C0541EA045170BD41F480114FF0000E46
:1009E000013C90E645EA060E8DE60CEA135594EAC2
:1009F0000C0F08BF95EA0C0F3FF43BAF94EA0C0FC5
:100A00000AD150EA01347FF434AF95EA0C0F7FF439
:100A100025AF104619462CE795EA0C0F06D152EA8D
:100A200003353FF4FDAE1046194622E750EA410671
:100A300018BF52EA43067FF4C5AE50EA41047FF482
:100A40000DAF52EA43057FF4EBAE12E74FF0FF3CE7
:100A500006E000BF4FF0010C02E000BF4FF0010CB8
:100A60004DF804CD4FEA410C7FEA6C5C4FEA430C31
:100A700018BF7FEA6C5C1BD001B050EA410C0CBF80
:100A800052EA430C91EA030F02BF90EA020F0020E2
:100A9000704710F1000F91EA030F58BF994208BF49
:100AA00090422CBFD8176FEAE37040F00100704706
:100AB0004FEA410C7FEA6C5C02D150EA013C07D15D
:100AC0004FEA430C7FEA6C5CD6D152EA033CD3D0A8
:100AD0005DF8040B704700BF8446104662468C46A2
:100AE0001946634600E000BF01B5FFF7B7FF0028D5
:100AF00048BF10F1000F01BD4DF808EDFFF7F4FFFE
:100B00000CBF012000205DF808FB00BF4DF808ED88
:100B1000FFF7EAFF34BF012000205DF808FB00BFAB
:100B20004DF808EDFFF7E0FF94BF012000205DF8CD
:100B300008FB00BF4DF808EDFFF7CEFF94BF012082
:100B400000205DF808FB00BF4DF808EDFFF7C4FF7B
:100B500034BF012000205DF808FB00BF4FEA410CC4
:100B60007FEA6C5C02D150EA013C0AD14FEA430CA7
:100B70007FEA6C5C02D152EA033C02D14FF00000E4
:100B800070474FF0010070474FEA410212F5001222
:100B900015D211D56FF47873B3EB625212D94FEAC4
:100BA000C12343F0004343EA505311F0004F23FAAE
:100BB00002F018BF404270474FF00000704750EA03
:100BC000013005D111F0004008BF6FF000407047C0
:100BD0004FF00000704700BF4A0011D212F500121A
:100BE00011D20DD56FF47873B3EB62520ED44FEA85
:100BF000C12343F0004343EA505323FA02F0704705
:100C00004FF00000704750EA013002D14FF0FF3042
:100C100070474FF0000070474FEA4102B2F1E043E5
:100C200024BFB3F5001CDCF1FE5C0DD901F0004CD3
:100C30004FEAC0024CEA5070B2F1004F40EB830023
:100C400008BF20F00100704711F0804F21D113F14F
:100C50003872BCBF01F00040704741F480114FEA88
:100C60005252C2F11802C2F1200C10FA0CF320FA11
:100C700002F018BF40F001004FEAC1234FEAD3232E
:100C800003FA0CFC40EA0C0023FA02F34FEA430398
:100C9000CCE77FEA625307D150EA01331EBF4FF021
:100CA000FE4040F44000704701F0004040F0FE403C
:100CB00040F40000704700BF53B94AB9002908BF8B
:100CC00000281CBF4FF0FF314FF0FF3000F0A0B9FB
:100CD000ADF1080C6DE904CE00F03CF8DDF804E05D
:100CE000DDE9022304B0704738B500220023044632
:100CF0000D46FFF70BFF28B920462946BDE83840CE
:100D000000F00AB8204605F1004100F005F8404225
:100D100061EB410138BD00BFD0B50C4B0022064647
:100D20000F46FFF781FCFFF757FF0446FFF702FC71
:100D3000074B0022FFF778FC02460B463046394647
:100D4000FFF7BAFAFFF748FF2146D0BD0000F03D9B
:100D50000000F0412DE9F047089D0C46002B4ED1D4
:100D600094468C458646B2FA82F262D94AB1C2F103
:100D70002003914020FA03F30CFA02FC194300FA15
:100D800002FE4FEA1C471FFA8CF6B1FBF7F44FEA5C
:100D90001E4307FB141143EA014304FB06F1994289
:100DA0000AD91CEB030304F1FF3080F01281994251
:100DB00040F20F81023C6344591A1FFA8EF3B1FBD3
:100DC000F7F007FB101143EA014300FB06F69E42D1
:100DD0000AD91CEB030300F1FF3180F0FC809E4236
:100DE00040F2F980634402389B1B40EA0440002132
:100DF0001DB1D3400022C5E90032BDE8F0878B4227
:100E000005D90DB1C5E9000100210846F5E7B3FA9F
:100E100083F1002946D1A34202D39042C0F0F08072
:100E2000861A64EB03030120002DE6D0C5E90063B8
:100E3000E3E7002A40F09080A1EB0C044FEA1C4845
:100E40001FFA8CF70121B4FBF8F64FEA1E4308FBAA
:100E5000164443EA044307FB06F0984208D91CEB0A
:100E6000030306F1FF3402D2984200F2CD802646F9
:100E70001C1A1FFA8EF3B4FBF8F008FB104443EA87
:100E8000044300FB07F79F4208D91CEB030300F162
:100E9000FF3402D29F4200F2B0802046DB1B40EAC2
:100EA0000640A5E7C1F120068B4022FA06F71F4352
:100EB00020FA06FC04FA01F343EA0C03F44000FABA
:100EC00001F8380C4FEA1349B4FBF0FE1FFA87FC17
:100ED00000FB1E4449EA04440EFB0CF9A14502FA4A
:100EE00001F20AD93C190EF1FF3A80F08480A14545
:100EF00040F28180AEF1020E3C44A4EB09041FFADB
:100F000083F9B4FBF0F300FB134449EA044403FB08
:100F10000CFCA44507D93C1903F1FF3067D2A44566
:100F200065D9023B3C4443EA0E40A0FB0293A4EB8C
:100F30000C049C42CE469C4651D34ED055B1B8EBE2
:100F40000E0364EB0C0404FA06F6CB401E43CC40BF
:100F5000C5E90064002150E7C2F1200320FA03F143
:100F60000CFA02FC24FA03F394400C434FEA1C48A9
:100F700000FA02FE1FFA8CF7B3FBF8F008FB103101
:100F8000230C43EA014300FB07F1994208D91CEB0B
:100F9000030300F1FF362CD299422AD90238634468
:100FA0005B1AA4B2B3FBF8F108FB113344EA034423
:100FB00001FB07F3A34208D91CEB040401F1FF363F
:100FC00013D2A34211D902396444E41A41EA004120
:100FD00039E70446F0E6084606E7C845AED2B9EB65
:100FE000020E63EB070C0138A8E73146EDE7034634
:100FF00099E73046D4E7D6467FE7634402384DE7A9
:101000000646234608460FE7023E634430E700BF2A
:10101000704700BF80B485B000AF87ED010A03467A
:10102000FB70FB78002B01D11D4B00E01D4BBB601A
:10103000D7ED017AF5EEC07AF1EE10FA02D54FF055
:1010400000037B6097ED017AD7ED027AB4EEE77A80
:10105000F1EE10FA01DDBB687B60D7ED016A97ED18
:10106000027AC6EE877A9FED107A67EE877AB6EE3F
:10107000007A77EE877AFCEEE77A17EE903AFB601B
:10108000FB68B3F5803F02D34FF6FF73FB60FB684C
:101090009BB218461437BD465DF8047B704700BF0D
:1010A000000020400000A04000FF7F4780B58AB0CC
:1010B00004AFF860084611461A4687ED010A034658
:1010C000FB720B46BB7213467B72FB68002B01D18F
:1010D000012331E07B7A072B01D901232CE0BB7A75
:1010E000184697ED010AFFF795FF0346FB8297F933
:1010F000093003F00F035BB243F030035BB27B7542
:10110000FB8A1B0A9BB2DBB23B74FB8ADBB27B74AB
:10111000FB7A9BB25B0099B27B7D9AB26423029307
:101120000223019307F1100300930123F86801F0F3
:1011300005FF03463B753B7D18461837BD4680BD0D
:1011400080B485B000AF78600B467B804FF6FF73AC
:10115000FB810023BB8127E0BB897A6813441B789D
:101160001B021AB2B7F90E3053401BB2FB810023A9
:10117000FB7213E0B7F90E30002B09DAFB895B0034
:101180001BB283F4815383F001031BB2FB8102E0A5
:10119000FB895B00FB81FB7A0133FB72FB7A072B37
:1011A000E8D9BB890133BB81BA897B889A42D3D302
:1011B000FB8918461437BD465DF8047B704780B53F
:1011C00084B000AF78602A2178680BF079FCF86071
:1011D000FB68002B01D100232CE0FB68013318468B
:1011E000FFF75EF80346032B01D8002322E0FB68DB
:1011F00001331022002118460AF0A8FE03467B8125
:101200007B681B78242B01D0002313E07B68581CDB
:10121000FA687B68D31A9BB2013B9BB21946FFF771
:101220008FFF03463B813A897B899A420CBF012399
:101230000023DBB218461037BD4680BD0000000019
:1012400080B58AB004AF78600B46FB70FB789BB228
:101250005B0099B24FF47A7302930323019307F171
:101260000C03009301230522786801F061FF034617
:10127000002B01D0144B1BE03B7B1A047B7B1B0231
:101280001343BA7B13437B617B691B097B617869DC
:10129000FFF750F90AA3D3E90023FFF7C5F9024687
:1012A0000B4610461946FFF7B7FC03463B613B6906
:1012B00007EE903AB0EE670A1837BD4680BD00BF12
:1012C0009A9999999999293F000080BF80B586B075
:1012D00002AF78600B46FB700F4B00221A800E4B5A
:1012E0001B88DBB23B730C4B1B881B0A9BB2DBB227
:1012F0007B73FB789BB25B0099B207F10C024FF055
:10130000FF3300930223786801F01AFD0346184664
:101310001037BD4680BD00BFEC02002080B586B00E
:1013200002AF7860084611461A460346FB700B462A
:10133000BB7013467B707B78002B0DD0012B19D12D
:10134000BB78012202FA03F39AB2194B1B881343AC
:101350009AB2174B1A800FE0BB78012202FA03F30E
:101360009BB2DB439AB2124B1B8813409AB2104BCC
:101370001A8001E0012317E00D4B1B88DBB23B73A1
:101380000B4B1B881B0A9BB2DBB27B73FB789BB2B7
:101390005B0099B207F10C024FF0FF330093022378
:1013A000786801F0CDFC034618461037BD4680BD75
:1013B000EC0200200FB480B5A2B000AF07F1940397
:1013C0007B6007F108007B68D7F8902080210BF044
:1013D00061FB02E0012000F0EFFF07F1080318466F
:1013E000FEF75EFF03469AB207F10803114618465E
:1013F00009F074FA0346012BECD000BF00BF883718
:10140000BD46BDE8804004B07047000080B400AF26
:10141000054B00221A70054B00221A7000BFBD4612
:101420005DF8047B704700BFEE020020EF02002051
:1014300080B586B000AF786039607B68052B01D03D
:10144000002336E03B681B68184600F0A1F978617C
:101450007B69002B01D100232BE03B6804331B6820
:101460000022002118460AF071FD0346FB743B6818
:1014700008331B68184609F083FE0346BB743B68BB
:101480000C331B68184609F07BFE03467B743B68EF
:1014900010331B68002118460AF07AFC87ED030A16
:1014A0007B7CBA7CF97C97ED030A7869FFF7FEFD37
:1014B000012318461837BD4680BD000080B586B0B0
:1014C00000AFF860B9607A6000237B610F49F8686B
:1014D0000BF016FB38610CE07B695A1C7A619B00AB
:1014E000BA6813443A691A60084900200BF008FBF7
:1014F00038613B69002B03D07A697B689A42EBDB49
:101500007B6918461837BD4680BD00BF58F60008F5
:1015100080B582B000AF7860796803480BF03AFA82
:1015200000BF0837BD4680BD5CF6000880B5B0B08E
:1015300000AF78607868FEF7B3FE03467F2B04D9CE
:101540004148FFF7E5FF002379E007F12C037968B4
:1015500018460BF0A8FB07F10C0107F12C03082239
:101560001846FFF7ABFFC7F8B800D7F8B830002B24
:1015700004D13648FFF7CCFF002360E0FB68C7F8D2
:10158000B430D7F8B830013BC7F8B030002387F843
:10159000BF304AE097F8BF202D4913465B00134443
:1015A0009B000B441B68D7F8B4101846FEF718FED2
:1015B0000346002B34D197F8BF20254913465B0022
:1015C00013449B000B4404331B781A46D7F8B03001
:1015D000934204D01F48FFF79BFF00232FE097F8AA
:1015E000BF201B4913465B0013449B000B44083388
:1015F0001B6807F10C0204321146D7F8B000984777
:10160000034687F8AF3097F8AF3083F00103DBB2C1
:10161000002B02D01048FFF77BFF97F8AF300EE0A9
:1016200097F8BF30013387F8BF300C4B1B7897F821
:10163000BF209A42AED30A48FFF76AFF002318463C
:10164000C037BD4680BD00BF68F6000874F60008CC
:10165000C4F7000880F6000884F60008E8F70008E0
:101660008CF60008B0B588B002AF786039607B684E
:10167000022B04D02548FFF79DFE002342E03B6883
:101680001B68184600F084F878617B69002B04D150
:101690001F48FFF78FFE002334E03B6804331B68CC
:1016A0000022002118460AF051FC0346FB74FB7C23
:1016B00019467869FFF7C4FD87ED030AD7ED037A71
:1016C000F5EEC07AF1EE10FA0AD53B6819683B686E
:1016D00004331B681A460F48FFF76CFE002311E025
:1016E0003B681C683B6804331D68F868FEF744FFDC
:1016F00002460B46CDE900232A4621460648FFF75D
:1017000059FE012318461837BD46B0BD94F60008AF
:10171000A0F60008ACF60008CCF6000880B584B04E
:1017200000AF786039607B68042B01D000232BE088
:101730003B681B68184600F02BF8F860FB68002B2C
:1017400001D1002320E03B6804331B680022002104
:1017500018460AF0FBFB0346FB723B6808331B6824
:10176000184609F00DFD0346BB723B680C331B683D
:10177000184609F005FD03467B727B7ABA7AF97A3E
:10178000F868FFF7CBFD012318461037BD4680BD32
:1017900080B582B000AF786006497868FEF720FD1A
:1017A0000346002B01D1044B00E000231846083704
:1017B000BD4680BD20F70008F002002080B58AB049
:1017C00000AF07F1140300221A605A609A60DA60D1
:1017D0001A6100233B61264B1B6B254A43F004032F
:1017E0001363234B1B6B03F004033B613B69002332
:1017F000FB601F4B1B6B1E4A43F0800313631C4BA3
:101800001B6B03F08003FB60FB680023BB60184B7D
:101810001B6B174A43F001031363154B1B6B03F05B
:101820000103BB60BB6800237B60114B1B6B104A3C
:1018300043F0020313630E4B1B6B03F002037B6048
:101840007B68002206210B4801F002F906237B6128
:101850000123BB610023FB6100233B6207F11403FA
:101860001946044800F070FF00BF2837BD4680BD10
:10187000003802400000024080B500AF124B134A0E
:101880001A60114B124A5A600F4B00229A600E4B9D
:101890000022DA600C4B4FF480421A610A4B00229E
:1018A0005A61094B00229A61074B0022DA61064B0C
:1018B00000221A62044801F0FFF80346002B01D011
:1018C00000F096F900BF80BDF002002000540040F7
:1018D000A086010080B58AB000AF786007F11403DC
:1018E00000221A605A609A60DA601A617B681B688D
:1018F000194A93422BD100233B61184B1B6B174AAB
:1019000043F002031363154B1B6B03F002033B61AF
:101910003B69C0237B611223BB610023FB6103236E
:101920003B6204237B6207F1140319460C4800F064
:101930000BFF0023FB60094B1B6C084A43F40013A8
:101940001364064B1B6C03F40013FB60FB6800BFC1
:101950002837BD4680BD00BF00540040003802401B
:101960000004024080B582B000AF00F0B3FC00F08C
:1019700055F8FFF723FF00F091FB08F0EFFEFFF7AB
:101980007BFF00F003FC20211D48FFF79FFCFFF7C1
:101990003DFD00F07DF900F097F90346002B24D0BF
:1019A000184B01221A7000F001FA78607968164825
:1019B000FFF700FD7868FFF702FC0346002B0DD00F
:1019C00000F0FEF9786079681048FFF7F3FC78685A
:1019D000FFF7ACFD0E48FFF7EDFCDCE7094B0122F9
:1019E0001A700C48FFF7E6FCD5E7064B1B78002B76
:1019F000D1D00948FFF7DEFC024B00221A70CAE77B
:101A0000F00200200800002028F700083CF700083A
:101A100048F7000858F7000868F7000880B594B048
:101A200000AF07F120033022002118460BF040F8E8
:101A300007F10C0300221A605A609A60DA601A619A
:101A40000023BB60284B1B6C274A43F08053136470
:101A5000254B1B6C03F08053BB60BB6800237B608D
:101A6000224B1B6823F44043204A43F40043136095
:101A70001E4B1B6803F440437B607B6801233B6281
:101A80004FF480337B620223BB634FF48003FB631C
:101A900019233B6490237B640223BB640323FB6410
:101AA00007F12003184603F0FDFB0346002B01D08D
:101AB00000F09EF80F23FB6002233B6100237B6153
:101AC0004FF48053BB610023FB6107F10C0302213B
:101AD000184603F05FFE0346002B01D000F088F8A3
:101AE00000BF5037BD4680BD003802400070004046
:101AF00080B584B000AF78607B681A68324B1B6891
:101B00009A425CD1314B1B68C32B05DC01220221B8
:101B10002F4800F09DFF08E02C4B1B68F22B04DCE3
:101B2000002202212A4800F093FF2A4B1B685B0029
:101B3000013B294A126802FB03F3C3F1C203FB60B5
:101B4000224B1B68FA689A422CDC204B1B68C22B84
:101B500028DC1E4B1B68FA689A4204D1012204213A
:101B60001B4800F075FF194B1A68FB68D31A1A4A14
:101B7000126893FBF2F101FB02F29B1A002B08D1D1
:101B8000124B1B68FA689A4203D00421104800F0F7
:101B900078FF0E4B1B68F22B04D1002204210C4865
:101BA00000F056FF094B1B68F32B03D1074B0022B3
:101BB0001A6004E0054B1B680133044A136000BF40
:101BC0001037BD4680BD00BF5806002044030020EA
:101BD00000000240000000200400002080B483B018
:101BE00000AF786000BF0C37BD465DF8047B7047DE
:101BF00080B400AF72B600BF00BFFDE780B483B011
:101C000000AF0346FB80FB8801335A42C3F308034D
:101C1000C2F3080258BF53429BB218460C37BD4668
:101C20005DF8047B7047000080B584B000AF786039
:101C300039600023FB601CE0124B1B889BB21846E6
:101C4000FFF7DCFF03467B810F4B1B889BB27A8931
:101C50009A420BD07A68FB6813440A4A128892B2FF
:101C600019780A4B9954074A7B891380FB68013322
:101C7000FB60FA683B689A42DED300BF00BF1037B2
:101C8000BD4680BD480500204A05002048030020CD
:101C900080B400AF0021084B0A461A80074B0A4661
:101CA0001A80074B00221A80064B00221A7000BFD0
:101CB000BD465DF8047B70474A05002048050020BA
:101CC000500600204C05002080B483B000AF51E0E6
:101CD000304B1B889BB21A462F4B9B5CFB712D4BE4
:101CE0001B889BB201339BB2C3F308039AB2294B02
:101CF0001A802A4B1B78002B02D0012B14D039E01C
:101D0000FB79242B33D1264B00221A80244B1B88CD
:101D10005A1C91B2224A11801946224AFB79535427
:101D20001E4B01221A7022E01D4B1B885A1C91B2D7
:101D30001B4A118019461B4AFB795354184B1B88C8
:101D40007F2B06D9154B00221A70154B00221A80E2
:101D50000FE0FB790A2B0CD1114B1B881A46114B53
:101D6000002199540D4B00221A7001230BE000BF93
:101D700000E000BF074B1B889AB20B4B1B889BB23D
:101D80009A42A5D1002318460C37BD465DF8047B66
:101D9000704700BF4A050020480300204C05002082
:101DA00050060020500500204805002080B400AFF8
:101DB000024B1846BD465DF8047B70475005002075
:101DC00080B582B000AF0B48FEF76AFA0346FB808D
:101DD000FB88073BBB80BB881A46074907480AF0C7
:101DE0006AFFBB88054A0021D154044B18460837C6
:101DF000BD4680BD5005002051050020D0050020C3
:101E000080B483B000AF00237B60104B5B6C0F4A43
:101E100043F4804353640D4B5B6C03F480437B605D
:101E20007B6800233B60094B1B6C084A43F08053DE
:101E30001364064B1B6C03F080533B603B6800BF90
:101E40000C37BD465DF8047B704700BF0038024088
:101E500080B400AF00BFFDE780B400AF00BFFDE776
:101E600080B400AF00BFFDE780B400AF00BFFDE766
:101E700080B400AF00BFFDE780B400AF00BFBD4637
:101E80005DF8047B704780B400AF00BFBD465DF8CD
:101E9000047B704780B400AF00BFBD465DF8047B93
:101EA000704780B500AF00F067FA00BF80BD00004A
:101EB00080B500AF024803F09CFE00BF80BD00BFAC
:101EC0005806002080B500AF024804F069FA00BF50
:101ED00080BD00BFA006002080B500AF024802F020
:101EE000D3F800BF80BD00BFCC13002080B400AF8A
:101EF00001231846BD465DF8047B704780B582B06B
:101F000000AF786039600AF0A1FE034616221A601D
:101F10004FF0FF3318460837BD4680BD80B582B00C
:101F200000AF78604FF0FF317868FFF7E7FF00BF40
:101F3000FDE780B586B000AFF860B9607A60002335
:101F40007B610AE0AFF300800146BB685A1CBA60AF
:101F5000CAB21A707B6901337B617A697B689A42E5
:101F6000F0DB7B6818461837BD4680BD80B586B06B
:101F700000AFF860B9607A6000237B6109E0BB685C
:101F80005A1CBA601B781846AFF300807B69013396
:101F90007B617A697B689A42F1DB7B681846183767
:101FA000BD4680BD80B483B000AF78604FF0FF3392
:101FB00018460C37BD465DF8047B704780B483B08B
:101FC00000AF786039603B684FF400525A600023DC
:101FD00018460C37BD465DF8047B704780B483B06B
:101FE00000AF7860012318460C37BD465DF8047BCE
:101FF000704780B485B000AFF860B9607A600023A4
:1020000018461437BD465DF8047B704780B586B02E
:1020100000AF7860144A154BD31A7B617B693B6132
:10202000134B1B68002B02D1114B124A1A60104B44
:102030001A687B6813443A699A4207D20AF006FE8E
:1020400003460C221A604FF0FF3309E0084B1B686F
:10205000FB60074B1A687B681344054A1360FB68F2
:1020600018461837BD4680BD00000120000400005E
:1020700054060020201C002080B400AF064BD3F88B
:102080008830054A43F47003C2F8883000BFBD466B
:102090005DF8047B704700BF00ED00E080B586B0BE
:1020A00000AF07F1080300221A605A609A60DA60F4
:1020B0003B4600221A605A601E4B1F4A1A601D4B95
:1020C00043F2D3025A601B4B00229A60194B012243
:1020D000DA60184B00221A61164B00225A61154B28
:1020E00000229A61134803F035FD0346002B01D00E
:1020F000FFF77EFD4FF48053BB6007F108031946DC
:102100000C4803F066FE0346002B01D0FFF770FD7C
:1021100000233B6000237B603B461946054804F0E2
:102120006DF80346002B01D0FFF762FD00BF1837A2
:10213000BD4680BD580600200000014080B584B037
:1021400000AF78607B681B680E4A934215D100236C
:10215000FB600D4B5B6C0C4A43F0010353640A4B6C
:102160005B6C03F00103FB60FB6800220021192077
:1021700000F021FA192000F03AFA00BF1037BD46EE
:1021800080BD00BF000001400038024080B500AFB4
:10219000114B124A1A60104B4FF4E1325A600E4B49
:1021A00000229A600C4B0022DA600B4B00221A616D
:1021B000094B0C225A61084B00229A61064B0022FF
:1021C000DA61054804F09CF80346002B01D0FFF7C4
:1021D0000FFD00BF80BD00BFA00600200010014021
:1021E00080B58AB000AF786007F1140300221A604E
:1021F0005A609A60DA601A617B681B681D4A9342D4
:1022000034D100233B611C4B5B6C1B4A43F0100331
:102210005364194B5B6C03F010033B613B69002373
:10222000FB60154B1B6B144A43F001031363124B05
:102230001B6B03F00103FB60FB684FF4C0637B6121
:102240000223BB610023FB6103233B6207237B6204
:1022500007F114031946094800F076FA002200211C
:10226000252000F0A8F9252000F0C1F900BF28378B
:10227000BD4680BD00100140003802400000024011
:10228000DFF834D0FFF7F8FE0C480D490D4A002363
:1022900002E0D458C4500433C4188C42F9D30A4A1B
:1022A0000A4C002301E013600432A242FBD30AF07F
:1022B000D3FCFFF757FB704700000120000000200F
:1022C000D002002094FC0008D00200201C1C00203A
:1022D000FEE7000080B500AF0E4B1B680D4A43F4CB
:1022E000007313600B4B1B680A4A43F4806313604E
:1022F000084B1B68074A43F480731360032000F007
:102300004FF90F2000F008F8FFF77AFD0023184678
:1023100080BD00BF003C024080B582B000AF786055
:10232000124B1A68124B1B7819464FF47A73B3FBA1
:10233000F1F3B2FBF3F3184600F067F90346002B04
:1023400001D001230EE07B680F2B0AD800227968A8
:102350004FF0FF3000F02FF9064A7B68136000232E
:1023600000E0012318460837BD4680BD0C00002060
:10237000140000201000002080B400AF064B1B7832
:102380001A46064B1B681344044A136000BFBD463F
:102390005DF8047B704700BF14000020E8060020B1
:1023A00080B400AF034B1B681846BD465DF8047B44
:1023B000704700BFE806002080B584B000AF7860A9
:1023C000FFF7EEFFB8607B68FB60FB68B3F1FF3F8F
:1023D00005D00A4B1B781A46FB681344FB6000BF0C
:1023E000FFF7DEFF0246BB68D31AFA689A42F7D8B5
:1023F00000BF00BF1037BD4680BD00BF14000020E5
:1024000080B485B000AF78607B6803F00703FB60A1
:102410000C4BDB68BB60BA684FF6FF031340BB6030
:10242000FB681A02BB68134343F0BF6343F40033F5
:10243000BB60044ABB68D36000BF1437BD465DF87B
:10244000047B704700ED00E080B400AF044BDB6814
:102450001B0A03F007031846BD465DF8047B70476E
:1024600000ED00E080B483B000AF0346FB7197F944
:102470000730002B0BDBFB7903F01F02074997F9AC
:1024800007305B09012000FA02F241F8232000BF67
:102490000C37BD465DF8047B704700BF00E100E0EB
:1024A00080B483B000AF03463960FB7197F9073001
:1024B000002B0ADB3B68DAB20C4997F907301201AE
:1024C000D2B20B4483F800230AE03B68DAB2084931
:1024D000FB7903F00F03043B1201D2B20B441A76CE
:1024E00000BF0C37BD465DF8047B704700E100E09B
:1024F00000ED00E080B489B000AFF860B9607A60A8
:10250000FB6803F00703FB61FB69C3F10703042BBE
:1025100028BF0423BB61FB690433062B02D9FB6986
:10252000033B00E000237B614FF0FF32BB6902FAFE
:1025300003F3DA43BB681A407B699A404FF0FF31DE
:102540007B6901FA03F3D9437B680B4013431846B8
:102550002437BD465DF8047B7047000080B582B02B
:1025600000AF78607B68013BB3F1807F01D301232A
:102570000FE00A4A7B68013B53600F214FF0FF30A8
:10258000FFF78EFF054B00229A60044B07221A606A
:10259000002318460837BD4680BD00BF10E000E0AC
:1025A00080B582B000AF78607868FFF729FF00BF80
:1025B0000837BD4680BD80B586B000AF0346B96020
:1025C0007A60FB7300237B61FFF73EFF78617A68D6
:1025D000B9687869FFF78EFF024697F90F30114608
:1025E0001846FFF75DFF00BF1837BD4680BD80B5B8
:1025F00082B000AF0346FB7197F907301846FFF72A
:1026000031FF00BF0837BD4680BD80B582B000AF46
:1026100078607868FFF7A2FF034618460837BD4682
:1026200080BD80B584B000AF78607B689B6DFB6037
:10263000FFF7B6FEB8607B6893F83530DBB2022B4B
:1026400008D07B6880225A657B68002283F834209A
:10265000012352E07B681B681A687B681B6822F0C4
:1026600016021A607B681B685A697B681B6822F037
:1026700080025A617B681B6C002B03D17B689B6CCA
:10268000002B07D07B681B681A687B681B6822F0E8
:1026900008021A607B681B681A687B681B6822F056
:1026A00001021A6013E0FFF77BFE0246BB68D31AF3
:1026B000052B0CD97B6820225A657B68032283F89E
:1026C00035207B68002283F83420032315E07B68E3
:1026D0001B681B6803F00103002BE4D17B68DB6DF2
:1026E0003F229A40FB689A607B68012283F835207C
:1026F0007B68002283F83420002318461037BD463B
:1027000080BD80B483B000AF78607B6893F83530CB
:10271000DBB2022B04D07B6880225A6501230CE0D7
:102720007B68052283F835207B681B681A687B6804
:102730001B6822F001021A60002318460C37BD46C0
:102740005DF8047B7047000080B489B000AF78600A
:10275000396000237B6100233B610023BB610023C0
:10276000FB6159E10122FB6902FA03F37B613B68DB
:102770001B687A6913403B613A697B699A4240F071
:1027800048813B685B6803F00303012B05D03B687D
:102790005B6803F00303022B30D17B689B68BB614D
:1027A000FB695B00032202FA03F3DB43BA691340BF
:1027B000BB613B68DA68FB695B0002FA03F3BA6944
:1027C0001343BB617B68BA699A607B685B68BB61D5
:1027D0000122FB6902FA03F3DB43BA691340BB61D0
:1027E0003B685B681B0903F00102FB6902FA03F313
:1027F000BA691343BB617B68BA695A603B685B681E
:1028000003F00303032B17D07B68DB68BB61FB6914
:102810005B00032202FA03F3DB43BA691340BB6196
:102820003B689A68FB695B0002FA03F3BA691343D9
:10283000BB617B68BA69DA603B685B6803F00303DD
:10284000022B23D1FB69DA087B68083253F8223067
:10285000BB61FB6903F007039B000F2202FA03F33D
:10286000DB43BA691340BB613B681A69FB6903F03B
:1028700007039B0002FA03F3BA691343BB61FB69C8
:10288000DA087B680832B96943F822107B681B6854
:10289000BB61FB695B00032202FA03F3DB43BA6905
:1028A0001340BB613B685B6803F00302FB695B009C
:1028B00002FA03F3BA691343BB617B68BA691A6011
:1028C0003B685B6803F44033002B00F0A2800023D8
:1028D000FB60574B5B6C564A43F480435364544B44
:1028E0005B6C03F48043FB60FB68524AFB699B0806
:1028F000023352F82330BB61FB6903F003039B00F2
:102900000F2202FA03F3DB43BA691340BB617B6811
:10291000494A934219D07B68484A934213D07B6856
:10292000474A93420DD07B68464A934207D07B6862
:10293000454A934201D1042308E0072306E003231C
:1029400004E0022302E0012300E00023FA6902F020
:10295000030292009340BA691343BB613549FB6996
:102960009B080233BA6941F82320384B9B68BB614E
:102970003B69DB43BA691340BB613B685B6803F4A6
:102980008013002B03D0BA693B691343BB612F4A04
:10299000BB6993602D4BDB68BB613B69DB43BA6964
:1029A0001340BB613B685B6803F40013002B03D04A
:1029B000BA693B691343BB61244ABB69D360234BAB
:1029C0005B68BB613B69DB43BA691340BB613B6831
:1029D0005B6803F40033002B03D0BA693B691343EF
:1029E000BB611A4ABB695360184B1B68BB613B69EA
:1029F000DB43BA691340BB613B685B6803F4803317
:102A0000002B03D0BA693B691343BB610F4ABB6912
:102A10001360FB690133FB61FB690F2B7FF6A2AEEC
:102A200000BF00BF2437BD465DF8047B704700BF80
:102A3000003802400038014000000240000402401B
:102A400000080240000C024000100240003C01401F
:102A500080B483B000AF78600B467B8013467B70F8
:102A60007B78002B03D07A887B689A6103E07B88AF
:102A70001A047B689A6100BF0C37BD465DF8047B81
:102A8000704780B485B000AF78600B467B807B6870
:102A90005B69FB607A88FB6813401A04FB68D943C2
:102AA0007B880B401A437B689A6100BF1437BD4690
:102AB0005DF8047B7047000080B584B000AF78609B
:102AC0007B68002B01D101232BE17B6893F83D301B
:102AD000DBB2002B06D17B68002283F83C207868AB
:102AE000FEF7F8FE7B68242283F83D207B681B6894
:102AF0001A687B681B6822F001021A607B681B68F9
:102B00001A687B681B6842F400421A607B681B6885
:102B10001A687B681B6822F400421A6002F0F2FF18
:102B2000F8607B685B68814A934207D8FB68804AFB
:102B3000934294BF01230023DBB206E0FB687D4A89
:102B4000934294BF01230023DBB2002B01D0012369
:102B5000E7E0FB68784AA2FB03239B0CBB607B6821
:102B60001B685B6823F03F017B681B68BA680A43F7
:102B70005A607B681B681B6A23F03F017B685B68B7
:102B80006A4A934202D8BB68013309E0BB684FF43C
:102B9000967202FB03F3694AA2FB03239B090133EC
:102BA0007A6812680B4313627B681B68DB6923F445
:102BB0004F4222F0FF027B685B685C498B4219D868
:102BC000FB68591E7B685B685B00B1FBF3F3591C23
:102BD00040F6FC730B40002B0AD0FB68591E7B6843
:102BE0005B685B00B1FBF3F30133C3F30B0351E00C
:102BF00004234FE07B689B68002B11D1FB68581EB3
:102C00007B6859680B465B000B44B0FBF3F3013360
:102C1000C3F30B03002B0CBF01230023DBB212E034
:102C2000FB68581E7B6859680B469B000B44990053
:102C30000B44B0FBF3F30133C3F30B03002B0CBFC6
:102C400001230023DBB2002B01D0012322E07B68AB
:102C50009B68002B0ED1FB68581E7B6859680B4699
:102C60005B000B44B0FBF3F30133C3F30B0343F4FA
:102C700000430FE0FB68581E7B6859680B469B00B9
:102C80000B4499000B44B0FBF3F30133C3F30B0384
:102C900043F44043796809681343CB617B681B6840
:102CA0001B6823F0C0017B68DA697B681B6A1A43E2
:102CB0007B681B680A431A607B681B689B6823F467
:102CC000034323F0FF037A6811697A68D2681143DD
:102CD0007A6812680B4393607B681B68DB6823F09B
:102CE000FF017B685A697B689B691A437B681B6894
:102CF0000A43DA607B681B681A687B681B6842F0CD
:102D000001021A607B6800221A647B68202283F823
:102D10003D207B6800221A637B68002283F83E20F6
:102D2000002318461037BD4680BD00BFA0860100B5
:102D30007F841E00FF083D0083DE1B43D34D6210DD
:102D400080B588B002AFF8607A601A460B467B8186
:102D500013463B81FFF724FB7861FB6893F83D3015
:102D6000DBB2202B40F0E0807B6900931923012225
:102D70007049F86800F00EFE0346002B01D00223D4
:102D8000D3E0FB6893F83C30012B01D10223CCE067
:102D9000FB68012283F83C20FB681B681B6803F07A
:102DA0000103012B07D0FB681B681A68FB681B68CE
:102DB00042F001021A60FB681B681A68FB681B6816
:102DC00022F400621A60FB68212283F83D20FB6830
:102DD000102283F83E20FB6800221A64FB687A68A0
:102DE0005A62FB683A895A85FB685B8D9AB2FB6828
:102DF0001A85FB68504ADA6279897B693A6AF86811
:102E000000F0C8FB0346002B01D001238DE0002316
:102E10003B61FB681B685B693B61FB681B689B69E6
:102E20003B613B6966E07A69396AF86800F0CCFE7C
:102E30000346002B0DD0FB681B6C042B07D1FB68ED
:102E40001B681A68FB681B6842F400721A60012351
:102E50006BE0FB685B6A1A78FB681B681A61FB68A9
:102E60005B6A5A1CFB685A62FB685B8D9BB2013B34
:102E70009AB2FB685A85FB681B8D013B9AB2FB68CE
:102E80001A85FB681B685B6903F00403042B1BD1E4
:102E9000FB681B8D002B17D0FB685B6A1A78FB68F8
:102EA0001B681A61FB685B6A5A1CFB685A62FB6804
:102EB0005B8D9BB2013B9AB2FB685A85FB681B8D08
:102EC000013B9AB2FB681A857A69396AF86800F0A2
:102ED000C3FE0346002B0DD0FB681B6C042B07D1EF
:102EE000FB681B681A68FB681B6842F400721A6072
:102EF00001231AE0FB681B8D002B94D1FB681B6833
:102F00001A68FB681B6842F400721A60FB68202292
:102F100083F83D20FB68002283F83E20FB680022F6
:102F200083F83C20002300E0022318461837BD46F2
:102F300080BD00BF020010000000FFFF80B588B018
:102F400002AFF860084611461A4603467B810B46DD
:102F50003B811346FB80FFF723FA7861FB6893F807
:102F60003D30DBB2202B40F0D9807B6900931923E0
:102F700001226D49F86800F00DFD0346002B01D0D9
:102F80000223CCE0FB6893F83C30012B01D10223F3
:102F9000C5E0FB68012283F83C20FB681B681B68C6
:102FA00003F00103012B07D0FB681B681A68FB685C
:102FB0001B6842F001021A60FB681B681A68FB6814
:102FC0001B6822F400621A60FB68212283F83D200E
:102FD000FB68402283F83E20FB6800221A64FB68ED
:102FE0003A6A5A62FB68BA8C5A85FB685B8D9AB262
:102FF000FB681A85FB684D4ADA62F8883A89798954
:103000007B690193BB6A00930346F86800F044FBB8
:103010000346002B52D0012381E07A69B96AF8682F
:1030200000F0D2FD0346002B0DD0FB681B6C042B77
:1030300007D1FB681B681A68FB681B6842F40072C2
:103040001A6001236BE0FB685B6A1A78FB681B68F7
:103050001A61FB685B6A5A1CFB685A62FB681B8D2D
:10306000013B9AB2FB681A85FB685B8D9BB2013B02
:103070009AB2FB685A85FB681B685B6903F004031E
:10308000042B1BD1FB681B8D002B17D0FB685B6AE0
:103090001A78FB681B681A61FB685B6A5A1CFB683C
:1030A0005A62FB681B8D013B9AB2FB681A85FB686C
:1030B0005B8D9BB2013B9AB2FB685A85FB681B8D06
:1030C000002BAAD17A69B96AF86800F0C5FD0346F9
:1030D000002B0DD0FB681B6C042B07D1FB681B6811
:1030E0001A68FB681B6842F400721A60012316E03C
:1030F000FB681B681A68FB681B6842F400721A6060
:10310000FB68202283F83D20FB68002283F83E20E4
:10311000FB68002283F83C20002300E002231846CD
:103120001837BD4680BD00BF020010000000FFFF41
:1031300080B58CB002AFF860084611461A460346C7
:103140007B810B463B811346FB80FFF729F97862B0
:10315000FB6893F83D30DBB2202B40F014827B6A91
:103160000093192301227B49F86800F013FC034601
:10317000002B01D0022307E2FB6893F83C30012BBF
:1031800001D1022300E2FB68012283F83C20FB68A6
:103190001B681B6803F00103012B07D0FB681B6849
:1031A0001A68FB681B6842F001021A60FB681B6822
:1031B0001A68FB681B6822F400621A60FB6822220E
:1031C00083F83D20FB68402283F83E20FB68002204
:1031D0001A64FB683A6B5A62FB68BA8E5A85FB68C0
:1031E0005B8D9AB2FB681A85FB685B4ADA62F888E5
:1031F0003A8979897B6A0193BB6B00930346F8682F
:1032000000F0E0FA0346002B01D00123BCE1FB688B
:103210001B8D002B13D100233B62FB681B685B698D
:103220003B62FB681B689B693B623B6AFB681B68EF
:103230001A68FB681B6842F400721A6090E1FB6830
:103240001B8D012B1BD1FB681B681A68FB681B6870
:1032500022F480621A600023FB61FB681B685B69D3
:10326000FB61FB681B689B69FB61FB69FB681B6872
:103270001A68FB681B6842F400721A6070E1FB6810
:103280001B8D022B1BD1FB681B681A68FB681B682F
:1032900022F480621A60FB681B681A68FB681B686E
:1032A00042F400621A600023BB61FB681B685B6923
:1032B000BB61FB681B689B69BB61BB6950E1002374
:1032C0007B61FB681B685B697B61FB681B689B69B2
:1032D0007B617B6944E1FB681B8D032B00F2F1806D
:1032E000FB681B8D012B23D17A6AB96BF86800F05B
:1032F000FBFC0346002B01D0012345E1FB681B6862
:103300001A69FB685B6AD2B21A70FB685B6A5A1C66
:10331000FB685A62FB681B8D013B9AB2FB681A85F9
:10332000FB685B8D9BB2013B9AB2FB685A8517E143
:10333000FB681B8D022B4ED17B6A0093BB6B002276
:103340000649F86800F026FB0346002B08D001234D
:103350001AE100BF020010000000FFFF040001009E
:10336000FB681B681A68FB681B6842F400721A60ED
:10337000FB681B681A69FB685B6AD2B21A70FB684B
:103380005B6A5A1CFB685A62FB681B8D013B9AB250
:10339000FB681A85FB685B8D9BB2013B9AB2FB68A8
:1033A0005A85FB681B681A69FB685B6AD2B21A709F
:1033B000FB685B6A5A1CFB685A62FB681B8D013B09
:1033C0009AB2FB681A85FB685B8D9BB2013B9AB28F
:1033D000FB685A85C4E07B6A0093BB6B00226C4992
:1033E000F86800F0D7FA0346002B01D00123CBE0A8
:1033F000FB681B681A68FB681B6822F480621A600D
:10340000FB681B681A69FB685B6AD2B21A70FB68BA
:103410005B6A5A1CFB685A62FB681B8D013B9AB2BF
:10342000FB681A85FB685B8D9BB2013B9AB2FB6817
:103430005A857B6A0093BB6B00225549F86800F0FF
:10344000A9FA0346002B01D001239DE0FB681B680D
:103450001A68FB681B6842F400721A60FB681B68FC
:103460001A69FB685B6AD2B21A70FB685B6A5A1C05
:10347000FB685A62FB681B8D013B9AB2FB681A8598
:10348000FB685B8D9BB2013B9AB2FB685A85FB6877
:103490001B681A69FB685B6AD2B21A70FB685B6AC8
:1034A0005A1CFB685A62FB681B8D013B9AB2FB6891
:1034B0001A85FB685B8D9BB2013B9AB2FB685A850B
:1034C0004EE07A6AB96BF86800F00EFC0346002BF8
:1034D00001D0012358E0FB681B681A69FB685B6A2E
:1034E000D2B21A70FB685B6A5A1CFB685A62FB68AE
:1034F0001B8D013B9AB2FB681A85FB685B8D9BB202
:10350000013B9AB2FB685A85FB681B685B6903F054
:103510000403042B24D1FB681B8D032B07D1FB680C
:103520001B681A68FB681B6822F480621A60FB68DB
:103530001B681A69FB685B6AD2B21A70FB685B6A27
:103540005A1CFB685A62FB681B8D013B9AB2FB68F0
:103550001A85FB685B8D9BB2013B9AB2FB685A856A
:10356000FB681B8D002B7FF4B6AEFB68202283F82E
:103570003D20FB68002283F83E20FB68002283F890
:103580003C20002300E0022318462837BD4680BDBA
:103590000400010080B588B002AFF8607A603B603B
:1035A0000B467B81FB68DB6A7B617B69082B06D05D
:1035B0007B69012B03D07B6913F5803F08D1FB6841
:1035C0001B681A68FB681B6842F480721A600BE083
:1035D000FB681B6B122B07D1FB681B681A68FB6822
:1035E0001B6842F480721A603B6800937B6800227B
:1035F0004FF00111F86800F0CDF90346002B0DD013
:10360000FB681B681B6803F48073B3F5807F03D1EC
:10361000FB684FF400721A64032335E0FB681B69F2
:10362000B3F5804F08D17B89DBB21A46FB681B6873
:1036300002F0FE021A611BE07B89DB11DBB203F0B2
:103640000603DBB263F00F03DAB2FB681B681A6192
:103650003B687A680E49F86800F016FA0346002BBA
:1036600001D0012310E07B89DAB2FB681B681A6184
:103670003B687A680749F86800F006FA0346002BB1
:1036800001D0012300E0002318461837BD4680BD55
:10369000080001000200010080B588B002AFF860A8
:1036A000084611461A4603467B810B463B8113466A
:1036B000FB80FB681B681A68FB681B6842F4807219
:1036C0001A607B6A00933B6A00224FF00111F86890
:1036D00000F060F90346002B0DD0FB681B681B68E7
:1036E00003F48073B3F5807F03D1FB684FF400725D
:1036F0001A6403235FE07B89DBB21A46FB681B6810
:1037000002F0FE021A617B6A3A6A2D49F86800F0FD
:10371000BBF90346002B01D001234CE000237B6161
:10372000FB681B685B697B61FB681B689B697B614D
:103730007B697A6A396AF86800F046FA0346002B1A
:103740000DD0FB681B6C042B07D1FB681B681A6843
:10375000FB681B6842F400721A6001232BE0FB88AF
:10376000012B05D13B89DAB2FB681B681A6121E0A5
:103770003B891B0A9BB2DAB2FB681B681A617A6A42
:10378000396AF86800F020FA0346002B0DD0FB6878
:103790001B6C042B07D1FB681B681A68FB681B684D
:1037A00042F400721A60012305E03B89DAB2FB683B
:1037B0001B681A61002318461837BD4680BD00BF3C
:1037C0000200010080B588B002AFF86008461146DB
:1037D0001A4603467B810B463B811346FB80FB6800
:1037E0001B681A68FB681B6842F480621A60FB68F9
:1037F0001B681A68FB681B6842F480721A607B6A57
:1038000000933B6A00224FF00111F86800F0C2F803
:103810000346002B0DD0FB681B681B6803F4807304
:10382000B3F5807F03D1FB684FF400721A64032361
:10383000AAE07B89DBB21A46FB681B6802F0FE0235
:103840001A617B6A3A6A5249F86800F01DF903462A
:10385000002B01D0012397E000237B61FB681B68EC
:103860005B697B61FB681B689B697B617B697A6A2A
:10387000396AF86800F0A8F90346002B0DD0FB6800
:103880001B6C042B07D1FB681B681A68FB681B685C
:1038900042F400721A60012376E0FB88012B05D107
:1038A0003B89DAB2FB681B681A6121E03B891B0A7D
:1038B0009BB2DAB2FB681B681A617A6A396AF868E7
:1038C00000F082F90346002B0DD0FB681B6C042B23
:1038D00007D1FB681B681A68FB681B6842F400721A
:1038E0001A60012350E03B89DAB2FB681B681A6159
:1038F0007A6A396AF86800F067F90346002B0DD040
:10390000FB681B6C042B07D1FB681B681A68FB68FB
:103910001B6842F400721A60012335E0FB681B68E3
:103920001A68FB681B6842F480721A607B6A009315
:103930003B6A00224FF00111F86800F02BF80346B3
:10394000002B0DD0FB681B681B6803F48073B3F574
:10395000807F03D1FB684FF400721A64032313E0E5
:103960007B89DBB243F00103DAB2FB681B681A61A2
:103970007B6A3A6A0649F86800F086F80346002B2D
:1039800001D0012300E0002318461837BD4680BD52
:103990000200010080B584B000AFF860B9603B6000
:1039A0001346FB7148E03B68B3F1FF3F44D0FEF79C
:1039B000F7FC0246BB69D31A3A689A4202D33B68C5
:1039C000002B39D1BB681B0CDBB2012B0DD1FB687E
:1039D0001B685B69DA43BB6813409BB2002B0CBFCA
:1039E00001230023DBB21A460CE0FB681B689B69CD
:1039F000DA43BB6813409BB2002B0CBF01230023AA
:103A0000DBB21A46FB799A4216D1FB6800221A6390
:103A1000FB68202283F83D20FB68002283F83E20CB
:103A2000FB681B6C43F02002FB681A64FB680022F1
:103A300083F83C20012323E0BB681B0CDBB2012B85
:103A40000DD1FB681B685B69DA43BB6813409BB20E
:103A5000002B0CBF01230023DBB21A460CE0FB68ED
:103A60001B689B69DA43BB6813409BB2002B0CBFF9
:103A700001230023DBB21A46FB799A4293D000233C
:103A800018461037BD4680BD80B584B000AFF860E1
:103A9000B9607A603B6071E0FB681B685B6903F4A6
:103AA0008063B3F5806F23D1FB681B681A68FB68DD
:103AB0001B6842F400721A60FB681B686FF4806236
:103AC0005A61FB6800221A63FB68202283F83D20BC
:103AD000FB68002283F83E20FB681B6C43F0040265
:103AE000FB681A64FB68002283F83C20012367E02E
:103AF0007B68B3F1FF3F41D0FEF752FC02463B68C2
:103B0000D31A7A689A4202D37B68002B36D1BB68FD
:103B10001B0CDBB2012B0CD1FB681B685B69DA4321
:103B2000BB6813409BB2002B14BF01230023DBB200
:103B30000BE0FB681B689B69DA43BB6813409BB2D0
:103B4000002B14BF01230023DBB2002B16D0FB682F
:103B500000221A63FB68202283F83D20FB680022C4
:103B600083F83E20FB681B6C43F02002FB681A645C
:103B7000FB68002283F83C20012321E0BB681B0C7A
:103B8000DBB2012B0CD1FB681B685B69DA43BB68B5
:103B900013409BB2002B14BF01230023DBB20BE0C8
:103BA000FB681B689B69DA43BB6813409BB2002B20
:103BB00014BF01230023DBB2002B7FF46DAF002381
:103BC00018461037BD4680BD80B584B000AFF860A0
:103BD000B9607A6034E0F86800F0E3F80346002B3F
:103BE00001D0012334E0BB68B3F1FF3F28D0FEF7DA
:103BF000D7FB02467B68D31ABA689A4202D3BB68E5
:103C0000002B1DD1FB681B685B6903F08003802BD0
:103C100016D0FB6800221A63FB68202283F83D203F
:103C2000FB68002283F83E20FB681B6C43F02002F7
:103C3000FB681A64FB68002283F83C20012307E03C
:103C4000FB681B685B6903F08003802BC3D10023F2
:103C500018461037BD4680BD80B584B000AFF8600F
:103C6000B9607A6034E0F86800F09BF80346002BF6
:103C700001D0012334E0BB68B3F1FF3F28D0FEF749
:103C80008FFB02467B68D31ABA689A4202D3BB689C
:103C9000002B1DD1FB681B685B6903F00403042B38
:103CA00016D0FB6800221A63FB68202283F83D20AF
:103CB000FB68002283F83E20FB681B6C43F0200267
:103CC000FB681A64FB68002283F83C20012307E0AC
:103CD000FB681B685B6903F00403042BC3D100235A
:103CE00018461037BD4680BD80B584B000AFF8607F
:103CF000B9607A6049E0FB681B685B6903F01003F8
:103D0000102B19D1FB681B686FF010025A61FB6819
:103D100000221A63FB68202283F83D20FB68002202
:103D200083F83E20FB681A6CFB681A64FB6800226B
:103D300083F83C20012330E0FEF732FB02467B682B
:103D4000D31ABA689A4202D3BB68002B1DD1FB6814
:103D50001B685B6903F04003402B16D0FB68002210
:103D60001A63FB68202283F83D20FB68002283F859
:103D70003E20FB681B6C43F02002FB681A64FB6862
:103D8000002283F83C20012307E0FB681B685B6985
:103D900003F04003402BAED1002318461037BD4638
:103DA00080BD80B483B000AF78607B681B685B69BE
:103DB00003F48063B3F5806F1BD17B681B686FF4DD
:103DC00080625A617B6800221A637B68202283F834
:103DD0003D207B68002283F83E207B681B6C43F00B
:103DE00004027B681A647B68002283F83C2001236C
:103DF00000E0002318460C37BD465DF8047B704791
:103E000080B586B002AF78607B68002B01D10123BA
:103E100001E17B681B68BB607B6893F89534DBB27B
:103E2000002B06D17B68002283F89424786806F082
:103E30009DFE7B68032283F89524BB68B3F1A04FF5
:103E400002D17B6800229A717B681B68184603F0D8
:103E500082FA7B6818687B681A7C8DF8002004332E
:103E60000ECB03F061F90346002B05D07B680222DC
:103E700083F895240123CEE07B681B680021184657
:103E800003F07AFA0346002B05D07B68022283F800
:103E900095240123BFE00023FB734AE0FA7B796895
:103EA0001346DB0013449B000B44153301221A70A8
:103EB000FA7B79681346DB0013449B000B441433F0
:103EC000FA7B1A70FA7BFB7B98B279681346DB00A9
:103ED00013449B000B442E3302461A80FA7B796808
:103EE0001346DB0013449B000B44183300221A7066
:103EF000FA7B79681346DB0013449B000B441C33A8
:103F000000221A60FA7B79681346DB0013449B0099
:103F10000B44203300221A60FA7B79681346DB00D9
:103F200013449B000B44243300221A60FB7B0133B3
:103F3000FB737B681B79FA7B9A42AFD30023FB7338
:103F400044E0FA7B79681346DB0013449B000B4482
:103F500003F2552300221A70FA7B79681346DB00BE
:103F600013449B000B4403F51573FA7B1A70FA7B1C
:103F700079681346DB0013449B000B4403F516736A
:103F800000221A70FA7B79681346DB0013449B0009
:103F90000B4403F5177300221A60FA7B7968134605
:103FA000DB0013449B000B4403F5187300221A60D6
:103FB000FA7B79681346DB0013449B000B4403F53E
:103FC000197300221A60FB7B0133FB737B681B793A
:103FD000FA7B9A42B5D37B6818687B681A7C8DF8A7
:103FE000002004330ECB03F013FA0346002B05D058
:103FF0007B68022283F8952401230CE07B68002271
:104000005A747B68012283F895247B681B681846E4
:1040100004F05DFA002318461037BD4680BD80B518
:1040200084B000AF78607B681B68FB607B6893F8A6
:104030009434012B01D1022322E07B68012283F812
:104040009424FB68DB6803F04003002B09D07B68F5
:104050005B7B012B05D1FB689B6B43F48032FB68D3
:104060009A637B681B68184603F064F97B681B68D9
:10407000184604F00BFA7B68002283F8942400238E
:1040800018461037BD4680BD90B58DB000AF786042
:104090007B681B683B623B6AFB617B681B68184658
:1040A00004F0C9FA0346002B40F08C847B681B683F
:1040B000184604F02DFA0346002B00F08284FB69B9
:1040C00003F500639B681B0AC3F30D027B68C3F80A
:1040D000D4247B681B68184604F01AFA034603F0E0
:1040E0000203022B07D17B681B685A697B681B6837
:1040F00002F002025A617B681B68184604F008FA55
:10410000034603F01003102B61D17B681B689A698A
:104110007B681B6822F010029A613B6A1B6ABB61D4
:10412000BB6903F00F021346DB0013449B0003F549
:1041300014737A68134404337B61BB695B0C03F02E
:104140000F03022B24D1BA6947F6F0731340002BFA
:1041500035D07B69D968BB691B099BB2C3F30A03DD
:104160009BB21A46386A04F03FF87B69DA68BB698B
:104170001B09C3F30A031A447B69DA607B695A6935
:10418000BB691B09C3F30A031A447B695A6116E031
:10419000BB695B0C03F00F03062B10D17B6803F2A5
:1041A0009C4308221946386A04F01EF87B695A6954
:1041B000BB691B09C3F30A031A447B695A617B6814
:1041C0001B689A697B681B6842F010029A617B68E1
:1041D0001B68184604F09CF9034603F40023B3F56A
:1041E000002F40F0A78000237B627B681B68184685
:1041F00004F0A1F9B86299E0BB6A03F00103002B57
:1042000000F08E807B681B687A6AD2B2114618462D
:1042100004F0C5F938613B6903F00103002B0CD0B1
:104220007B6A5A01FB69134403F530631A46012384
:104230009360796A786800F0A3FE3B6903F0080395
:10424000002B0CD07B6A5A01FB69134403F53063E1
:104250001A4608239360796A786800F079FF3B6911
:1042600003F01003002B08D07B6A5A01FB6913444A
:1042700003F530631A46102393603B6903F0020391
:10428000002B30D03B6A5B6903F08003802B09D19F
:10429000FB6903F500635B68FA6902F5006243F4A9
:1042A000806353607A6A1346DB0013449B0003F576
:1042B00014737A68134404337B617B69DB78012BC8
:1042C00008D17B690022DA707B6ADBB21946786814
:1042D00006F048FD7B6A5A01FB69134403F530631D
:1042E0001A46022393603B6903F02003002B08D099
:1042F0007B6A5A01FB69134403F530631A46202395
:1043000093603B6903F40053002B09D07B6A5A0188
:10431000FB69134403F530631A464FF4005393606E
:104320007B6A01337B62BB6A5B08BB62BB6A002BA2
:104330007FF462AF7B681B68184604F0E9F8034617
:1043400003F48023B3F5802F40F0DB807B681B688B
:10435000184604F00AF9B86200237B62CDE0BB6A1C
:1043600003F00103002B00F0C2807B681B687A6AAF
:10437000D2B21146184604F030F938613B6903F0B7
:104380000103002B57D07B6A03F00F03012202FACE
:1043900003F3FB60FB6903F500635A6BFB68DB43C7
:1043A000F96901F5006113404B637B6A5A01FB69AF
:1043B000134403F510631A46012393607B689B79CD
:1043C000012B32D179687A6A1346DB0013449B00D3
:1043D0000B442033196878687A6A1346DB0013446B
:1043E0009B0003441C331B68194478687A6A13469F
:1043F000DB0013449B000344203319607B6A002BCD
:1044000013D179687A6A1346DB0013449B000B448E
:1044100024331B68002B08D17B6818687B6803F283
:104420009C431A46012104F037F97B6ADBB2194636
:10443000786806F01CFC3B6903F00803002B08D0E9
:104440007B6A5A01FB69134403F510631A4608237B
:1044500093603B6903F01003002B08D07B6A5A017C
:10446000FB69134403F510631A46102393603B69FC
:1044700003F04003002B08D07B6A5A01FB69134408
:1044800003F510631A46402393603B6903F002036F
:10449000002B23D0796A386A03F01EF97A6A134632
:1044A000DB0013449B0010337A68134404337B61B0
:1044B0007B69DB78012B08D17B690022DA707B6A8B
:1044C000DBB21946786806F05FFC7B6A5A01FB692B
:1044D000134403F510631A46022393603B6903F00B
:1044E0008003002B03D0796A786800F0BDFC7B6AFA
:1044F00001337B62BB6A5B08BB62BB6A002B7FF443
:104500002EAF7B681B68184604F002F8034603F0E0
:104510000043B3F1004F22D1FB6903F500635B68F0
:10452000FA6902F5006223F0010353607B6893F897
:10453000CC34012B08D17B68002283F8CC240021E5
:10454000786800F0A3FE02E0786806F0FDFB7B6867
:104550001B685A697B681B6802F000425A617B68DD
:104560001B68184603F0D4FF034603F40063B3F559
:10457000006F12D1FB6903F500639B6803F0010330
:10458000012B02D1786806F0B9FB7B681B685A6979
:104590007B681B6802F400625A617B681B681846DE
:1045A00003F0B6FF034603F48053B3F5805F40F099
:1045B000B780FB6903F500635B68FA6902F5006286
:1045C00023F0010353607B681B681021184603F039
:1045D00083F80023FB6246E0FB6A5A01FB6913443F
:1045E00003F510631A464FF67F339360FB6A5A0156
:1045F000FB69134403F510631B68FA6A5101FA69F9
:104600000A4402F5106223F400131360FB6A5A0196
:10461000FB69134403F530631A464FF67F3393600A
:10462000FB6A5A01FB69134403F530631B68FA6A9D
:104630005101FA690A4402F5306223F40013136051
:10464000FB6A5A01FB69134403F530631B68FA6A7D
:104650005101FA690A4402F5306243F000631360C5
:10466000FB6A0133FB627B681B791A46FB6A934243
:10467000B2D3FB6903F50063DB69FA6902F50062F6
:1046800043F00113D3617B68DB7B002B16D0FB6901
:1046900003F50063D3F88430FA6902F5006243F051
:1046A0000B03C2F88430FB6903F500635B6CFA69A5
:1046B00002F5006243F00B03536415E0FB6903F558
:1046C00000635B69FA6902F5006243F4005343F04A
:1046D0002B035361FB6903F500631B69FA6902F55B
:1046E000006243F00B031361FB6903F500631B6871
:1046F000FA6902F5006223F4FE6313607B681868B0
:104700007B6899797B6803F29C431A4603F0C4FFE7
:104710007B681B685A697B681B6802F480525A6187
:104720007B681B68184603F0F3FE034603F400534E
:10473000B3F5005F23D17B681B68184603F089FF3F
:104740007B681B68184603F040F803461A467B68EE
:10475000DA717B681C6801F0C9F901467B68DB7976
:104760001A46204602F044FD786806F0A8FA7B68F5
:104770001B685A697B681B6802F400525A617B68A7
:104780001B68184603F0C4FE034603F00803082B19
:104790000AD1786806F085FA7B681B685A697B68DD
:1047A0001B6802F008025A617B681B68184603F018
:1047B000AFFE034603F08003802B23D13B6A9B6945
:1047C00023F080023B6A9A6101237B6214E07968DE
:1047D0007A6A1346DB0013449B000B4403F2572311
:1047E0001B78012B05D17B6ADBB21946786800F093
:1047F0000AFB7B6A01337B627B681B791A467B6A02
:104800009342E4D37B681B68184603F081FE03469D
:1048100003F48013B3F5801F3CD101237B622BE0AE
:104820007B6A5A01FB69134403F510631B68BB6183
:1048300079687A6A1346DB0013449B000B441833F3
:104840001B78012B15D1BB69002B12DA79687A6AC3
:104850001346DB0013449B000B44173301221A70EC
:104860007B6ADBB263F07F03DBB21946786800F045
:10487000CAFA7B6A01337B627B681B791A467B6AC2
:104880009342CDD37B681B685A697B681B6802F42E
:1048900080125A617B681B68184603F039FE034694
:1048A00003F40013B3F5001F56D101237B6245E0EA
:1048B0007B6A5A01FB69134403F530631B68BB61D3
:1048C00079687A6A1346DB0013449B000B4403F5B6
:1048D00016731B78012B2ED1BB69002B2BDABB6919
:1048E00003F480327B68D3F8D43403F001039A4296
:1048F00021D179687A6A1346DB0013449B000B448C
:1049000003F2572301221A703B6A9B6943F080022D
:104910003B6A9A613B6A5B6903F08003002B0AD112
:10492000FB6903F500635B68FA6902F5006243F412
:104930000073536008E07B6A01337B627B681B79FC
:104940001A467B6A9342B3D37B681B685A697B68BB
:104950001B6802F400125A617B681B68184603F05A
:10496000D7FD034603F08043B3F1804F0AD1786846
:1049700006F01CFA7B681B685A697B681B6802F0AA
:1049800080425A617B681B68184603F0C1FD0346EC
:1049900003F00403042B15D17B681B685B68BB61C3
:1049A000BB6903F00403002B02D0786806F00CFA10
:1049B0007B681B6859687B681B68BA690A435A6040
:1049C00000E000BF3437BD4690BD80B582B000AF77
:1049D00078600B46FB707B6893F89434012B01D10F
:1049E000022312E07B68012283F894247B68FA7822
:1049F0005A747B681B68FA781146184603F020FD4C
:104A00007B68002283F89424002318460837BD46AB
:104A100080BD80B584B000AF7860084611461A4664
:104A20000346FB700B463B801346BB700023FB72B2
:104A300097F90330002B0FDAFB7803F00F021346CF
:104A4000DB0013449B0010337A6813440433FB608B
:104A5000FB6801225A700FE0FB7803F00F02134647
:104A6000DB0013449B0003F514737A68134404338A
:104A7000FB60FB6800225A70FB7803F00F03DAB288
:104A8000FB681A703B88C3F30A02FB689A60FB68F4
:104A9000BA781A71FB685B78002B04D0FB681B782E
:104AA0001A46FB685A83BB78022B02D1FB680022AE
:104AB0005A717B6893F89434012B01D102230EE0E4
:104AC0007B68012283F894247B681B68F968184688
:104AD00002F0A0FE7B68002283F89424FB7A18463B
:104AE0001037BD4680BD80B584B000AF78600B46FE
:104AF000FB7097F90330002B0FDAFB7803F00F02FD
:104B00001346DB0013449B0010337A6813440433CC
:104B1000FB60FB6801225A700FE0FB7803F00F0284
:104B20001346DB0013449B0003F514737A681344A7
:104B30000433FB60FB6800225A70FB7803F00F031C
:104B4000DAB2FB681A707B6893F89434012B01D1B8
:104B500002230EE07B68012283F894247B681B68A3
:104B6000F968184602F0DEFE7B68002283F8942480
:104B7000002318461037BD4680BD80B586B000AF13
:104B8000F8607A603B600B46FB72FB7A03F00F0221
:104B90001346DB0013449B0003F51473FA681344B7
:104BA00004337B617B697A68DA607B693A681A61F1
:104BB0007B6900225A617B6900225A70FB7A03F0FC
:104BC0000F03DAB27B691A70FB689B79012B02D163
:104BD0007A687B69DA61FB681868FB689B791A461A
:104BE000796902F07BFF002318461837BD4680BD67
:104BF00080B483B000AF78600B46FB70FB7803F0A5
:104C00000F0279681346DB0013449B000B4403F545
:104C10001A731B6818460C37BD465DF8047B704755
:104C200080B586B000AFF8607A603B600B46FB72DF
:104C3000FB7A03F00F021346DB0013449B00103392
:104C4000FA68134404337B617B697A68DA607B69B4
:104C50003A681A617B6900225A617B6901225A70A5
:104C6000FB7A03F00F03DAB27B691A70FB689B7959
:104C7000012B02D17A687B69DA61FB681868FB68EE
:104C80009B791A46796902F029FF002318461837E4
:104C9000BD4680BD80B584B000AF78600B46FB7028
:104CA000FB7803F00F037A681279934201D901234C
:104CB0004FE097F90330002B0FDAFB7803F00F0277
:104CC0001346DB0013449B0010337A68134404330B
:104CD000FB60FB6801225A700DE0FA781346DB0096
:104CE00013449B0003F514737A6813440433FB6088
:104CF000FB6800225A70FB6801229A70FB7803F06F
:104D00000F03DAB2FB681A707B6893F89434012BB6
:104D100001D102231DE07B68012283F894247B6883
:104D20001B68F968184603F0B7FAFB7803F00F0325
:104D3000002B09D17B6818687B6899797B6803F23E
:104D40009C431A4603F0A8FC7B68002283F8942455
:104D5000002318461037BD4680BD80B584B000AF33
:104D600078600B46FB70FB7803F00F037A681279CA
:104D7000934201D9012342E097F90330002B0FDA67
:104D8000FB7803F00F021346DB0013449B00103343
:104D90007A6813440433FB60FB6801225A700FE009
:104DA000FB7803F00F021346DB0013449B0003F56E
:104DB00014737A6813440433FB60FB6800225A7052
:104DC000FB6800229A70FB7803F00F03DAB2FB68ED
:104DD0001A707B6893F89434012B01D102230EE002
:104DE0007B68012283F894247B681B68F968184665
:104DF00003F0C0FA7B68002283F89424002318464D
:104E00001037BD4680BD80B584B000AF78600B46DA
:104E1000FB7097F90330002B0CDAFB7803F00F02DC
:104E20001346DB0013449B0010337A6813440433A9
:104E3000FB600CE0FB7803F00F021346DB00134429
:104E40009B0003F514737A6813440433FB607B689A
:104E50001B68F968184603F0DFF80346FB72FB7A1B
:104E600018461037BD4680BD80B58AB002AF786065
:104E700039607B681B687B617B693B613A681346DC
:104E8000DB0013449B0010337A6813440433FB6047
:104E9000FB685A69FB681B699A4201D901236BE0E0
:104EA000FB681A69FB685B69D31AFB61FB689B6846
:104EB000FA699A4202D9FB689B68FB61FB6903337C
:104EC0009B08BB612AE0FB681A69FB685B69D31A1F
:104ED000FB61FB689B68FA699A4202D9FB689B6890
:104EE000FB61FB6903339B08BB61FB68D9683B68C6
:104EF000DAB2FB6998B27B689B79009303467869C4
:104F000003F034F9FB68DA68FB691A44FB68DA607D
:104F1000FB685A69FB691A44FB685A613B685A018D
:104F20003B69134403F510639B699BB2BA699A42CB
:104F300009D8FB685A69FB681B699A4203D2FB686F
:104F40001B69002BBFD1FB681A69FB685B699A4239
:104F500011D83B6803F00F03012202FA03F3BB6090
:104F60003B6903F500635A6BBB68DB43396901F5A4
:104F7000006113404B63002318462037BD4680BDB7
:104F800080B588B000AF786039607B681B68FB61D2
:104F9000FB69BB61FB693C3304331B687B613B6885
:104FA0005A01BB69134403F530639B683B617B681E
:104FB0009B79012B7BD13B6903F00803002B15D0B3
:104FC0007B69614A934240F2B9803B6903F4004334
:104FD000002B00F0B3803B685A01BB69134403F512
:104FE00030631A464FF400439360A7E03B6903F037
:104FF0002003002B09D03B685A01BB69134403F519
:1050000030631A462023936098E03B6903F028033D
:10501000002B40F093807B694B4A93420FD93B6948
:1050200003F40043002B0AD03B685A01BB691344C8
:1050300003F530631A464FF4004393607EE03A680C
:105040001346DB0013449B0003F514737A68134482
:105050000433FB60FB681A6A3B685901BB690B4467
:1050600003F530631B69C3F31203D21AFB685A615C
:105070003B68002B14D1FB681B69002B09D17B68AE
:1050800018687B6803F29C431A46012103F004FB75
:1050900006E0FB68DA68FB685B691A44FB68DA6063
:1050A0003B68DBB21946786805F0C6FD46E07B69CF
:1050B000264A934224D13B6903F40043002B0AD0D3
:1050C0003B685A01BB69134403F530631A464FF439
:1050D0000043936032E03B6903F02003002B08D0CB
:1050E0003B685A01BB69134403F530631A46202319
:1050F00093603B68DBB21946786805F09DFD1DE0C2
:105100003B68002B14D179683A681346DB001344DE
:105110009B000B4403F519731B68002B08D17B68B7
:1051200018687B6803F29C431A46002103F0B4FA26
:105130003B68DBB21946786805F07EFD002318460F
:105140002037BD4680BD00BF0A30544F0A31544F4E
:1051500080B586B000AF786039607B681B687B6182
:105160007B693B617B693C3304331B68FB603B68B4
:105170005A013B69134403F530639B68BB60FB68CD
:10518000154A93420ED9BB6803F40043002B09D0A3
:105190003B685A013B69134403F530631A464FF4E8
:1051A00000439360786805F035FDFB680A4A934236
:1051B0000CD97B689B79012B08D17B6818687B68C8
:1051C00003F29C431A46012103F066FA00231846B5
:1051D0001837BD4680BD00BF0A30544F80B485B03B
:1051E00000AF78600B46FB7013463B807B681B6802
:1051F0005B6ABB60FB78002B07D13B8819047B6896
:105200001B68BA680A439A6228E07B681B689B6A3D
:105210001B0CBA681344BB600023FB730DE07B6872
:105220001A68FB7B40339B0013445B681B0CBA6815
:105230001344BB60FB7B0133FB73FA7BFB78013BC0
:105240009A42ECD33B8818047B681968FB78013BD1
:10525000BA68024340339B000B445A60002318464F
:105260001437BD465DF8047B704780B483B000AF4F
:1052700078600B467B807B681B687A885A620023C3
:1052800018460C37BD465DF8047B704780B483B088
:1052900000AF78600B46FB7000BF0C37BD465DF871
:1052A000047B704780B586B000AF78607B68002BC8
:1052B00001D1012367E27B681B6803F00103002B27
:1052C00075D0884B9B6803F00C03042B0CD0854BE6
:1052D0009B6803F00C03082B12D1824B5B6803F42C
:1052E0008003B3F5800F0BD17E4B1B6803F40033B2
:1052F000002B5BD07B685B68002B57D1012342E217
:105300007B685B68B3F5803F06D1764B1B68754AB6
:1053100043F4803313601DE07B685B68B3F5A02F16
:105320000CD1704B1B686F4A43F4802313606D4BA4
:105330001B686C4A43F4803313600BE0694B1B68B5
:10534000684A23F480331360664B1B68654A23F474
:10535000802313607B685B68002B13D0FDF720F877
:10536000386108E0FDF71CF802463B69D31A642B4C
:1053700001D9032307E25B4B1B6803F40033002BC6
:10538000F0D014E0FDF70CF8386108E0FDF708F8FC
:1053900002463B69D31A642B01D90323F3E1514B35
:1053A0001B6803F40033002BF0D100E000BF7B68E2
:1053B0001B6803F00203002B63D04A4B9B6803F089
:1053C0000C03002B0BD0474B9B6803F00C03082BFE
:1053D0001CD1444B5B6803F48003002B16D1414B76
:1053E0001B6803F00203002B05D07B68DB68012BF0
:1053F00001D00123C7E13B4B1B6823F0F8027B6817
:105400001B69DB00374913430B603AE07B68DB68BC
:10541000002B20D0344B01221A60FCF7C1FF386109
:1054200008E0FCF7BDFF02463B69D31A022B01D905
:105430000323A8E12B4B1B6803F00203002BF0D0E1
:10544000284B1B6823F0F8027B681B69DB002549A9
:1054500013430B6015E0244B00221A60FCF7A0FFF9
:10546000386108E0FCF79CFF02463B69D31A022B27
:1054700001D9032387E11B4B1B6803F00203002BB8
:10548000F0D17B681B6803F00803002B36D07B68E3
:105490005B69002B16D0154B01221A60FCF780FFC8
:1054A000386108E0FCF77CFF02463B69D31A022B07
:1054B00001D9032367E10B4B5B6F03F00203002B61
:1054C000F0D01BE0094B00221A60FCF769FF38613D
:1054D0000EE0FCF765FF02463B69D31A022B07D9A1
:1054E000032350E10038024000004742800E47424B
:1054F000884B5B6F03F00203002BEAD17B681B68CB
:1055000003F00403002B00F097800023FB75814B10
:105510001B6C03F08053002B0FD10023BB607D4B2D
:105520001B6C7C4A43F0805313647A4B1B6C03F072
:105530008053BB60BB680123FB75774B1B6803F48A
:105540008073002B18D1744B1B68734A43F480732B
:105550001360FCF725FF386108E0FCF721FF0246E5
:105560003B69D31A022B01D903230CE16A4B1B6858
:1055700003F48073002BF0D07B689B68012B06D16D
:10558000644B1B6F634A43F0010313671CE07B68A5
:105590009B68052B0CD15F4B1B6F5E4A43F00403E5
:1055A00013675C4B1B6F5B4A43F0010313670BE00F
:1055B000584B1B6F574A23F001031367554B1B6F62
:1055C000544A23F0040313677B689B68002B15D0B3
:1055D000FCF7E6FE38610AE0FCF7E2FE02463B69B2
:1055E000D31A41F28832934201D90323CBE0494BCD
:1055F0001B6F03F00203002BEED014E0FCF7D0FE8B
:1056000038610AE0FCF7CCFE02463B69D31A41F24E
:105610008832934201D90323B5E03E4B1B6F03F060
:105620000203002BEED1FB7D012B05D1394B1B6C06
:10563000384A23F0805313647B689B69002B00F089
:10564000A180344B9B6803F00C03082B5CD07B6873
:105650009B69022B41D1314B00221A60FCF7A0FE5E
:10566000386108E0FCF79CFE02463B69D31A022B26
:1056700001D9032387E0274B1B6803F00073002B3D
:10568000F0D17B68DA697B681B6A1A437B685B6AC6
:105690009B011A437B689B6A5B08013B1B041A430E
:1056A0007B68DB6A1B061B4913434B601B4B0122C3
:1056B0001A60FCF775FE386108E0FCF771FE0246DF
:1056C0003B69D31A022B01D903235CE0114B1B6801
:1056D00003F00073002BF0D054E0104B00221A604E
:1056E000FCF75EFE386108E0FCF75AFE02463B69B3
:1056F000D31A022B01D9032345E0064B1B6803F0A4
:105700000073002BF0D13DE07B689B69012B07D132
:10571000012338E00038024000700040600047423A
:105720001B4B5B68FB607B689B69012B28D0FB6887
:1057300003F480027B68DB699A4221D1FB6803F0A5
:105740003F027B681B6A9A421AD1FA6847F6C07317
:1057500013407A68526A9201934211D1FB6803F4B4
:1057600040327B689B6A5B08013B1B049A4207D16D
:10577000FB6803F070627B68DB6A1B069A4201D00B
:10578000012300E0002318461837BD4680BD00BF46
:105790000038024080B584B000AF786039607B6823
:1057A000002B01D10123CCE0684B1B6803F00703F9
:1057B0003A689A420CD9654B3A68D2B21A70634B78
:1057C0001B6803F007033A689A4201D00123B8E04E
:1057D0007B681B6803F00203002B20D07B681B68EA
:1057E00003F00403002B05D0594B9B68584A43F43F
:1057F000E05393607B681B6803F00803002B05D01F
:10580000534B9B68524A43F460439360504B9B68F0
:1058100023F0F0027B689B684D4913438B607B68E3
:105820001B6803F00103002B44D07B685B68012BED
:1058300007D1474B1B6803F40033002B19D1012318
:105840007FE07B685B68022B03D07B685B68032B7F
:1058500007D13F4B1B6803F00073002B09D10123D4
:105860006FE03B4B1B6803F00203002B01D10123C7
:1058700067E0374B9B6823F003027B685B68344921
:1058800013438B60FCF78CFDF8600AE0FCF788FDA1
:105890000246FB68D31A41F28832934201D90323AE
:1058A0004FE02B4B9B6803F00C027B685B689B000E
:1058B0009A42EBD1254B1B6803F007033A689A42E2
:1058C0000CD2224B3A68D2B21A70204B1B6803F0FC
:1058D00007033A689A4201D0012332E07B681B68D3
:1058E00003F00403002B08D0194B9B6823F4E0520B
:1058F0007B68DB68164913438B607B681B6803F089
:105900000803002B09D0124B9B6823F460427B688C
:105910001B69DB000E4913438B6000F021F802463F
:105920000B4B9B681B0903F00F030A49CB5C22FA5F
:1059300003F3094A1360094B1B681846FCF7ECFC9B
:10594000002318461037BD4680BD00BF003C024012
:1059500000380240ECF700080C0000201000002086
:105960002DE9B04F90B000AF00237B630023FB63B1
:1059700000233B630023BB63594B9B6803F00C037C
:10598000082B0DD0082B00F2A180002B02D0042B95
:1059900003D09BE0534BBB639BE0534BBB6398E04E
:1059A0004F4B5B6803F03F037B634D4B5B6803F435
:1059B0008003002B28D04A4B5B689B0900223B6286
:1059C0007A623B6AC3F308000021474B03FB01F2F4
:1059D000002300FB03F31344434AA0FB0212FA62C4
:1059E0000A46BA62FA6A1344FB627B6B0022BB610F
:1059F000FA61D7E90623D7E90A01FBF75DF9024608
:105A00000B461346FB6353E0354B5B689B09002252
:105A10003B617A613B69C3F3080A4FF0000B5246C1
:105A20005B464FF000004FF00001590141EAD2619E
:105A3000500102460B46B2EB0A0863EB0B094FF02C
:105A400000024FF000034FEA891343EA98634FEADC
:105A50008812B2EB080463EB09054FF000024FF027
:105A60000003EB0043EA5473E20014461D4614EBB6
:105A70000A033B6045EB0B037B604FF000024FF0E5
:105A80000003D7E9004529468B02214643EA91539A
:105A900021468A02104619467B6B0022BB60FA60E1
:105AA000D7E90223FBF708F902460B461346FB63CE
:105AB0000B4B5B681B0C03F0030301335B003B6380
:105AC000FA6B3B6BB2FBF3F3BB6302E0054BBB63CA
:105AD00000BFBB6B18464037BD46BDE8B08F00BF66
